:1000000067C000008CC000008AC0000088C00000EB
:1000100086C0000084C0000082C0000080C00000D4
:100020007EC000000C94A00A7AC0000078C00000D6
:1000300076C0000020C6000072C0000070C0000042
:100040006EC000006CC000000C94270A0C945F0A7C
:1000500066C0000064C0000062C0000060C0000014
:100060005EC000005CC00000AB03B103B403B70383
:10007000BA03BD03C003C303C603C903CC03CF0344
:1000800020506F6C6F6C750033F720526F626F7485
:10009000004C696E6500666F6C6C6F776572003E30
:1000A0006733323E3E633332004C31362063646541
:1000B000677265673400000000000000001F1F1F0A
:1000C0001F1F1F1F64313600633136002F0B300BAA
:1000D00011241FBECFEFD4E0DEBFCDBF11E0A0E002
:1000E000B1E0EAECF4E202C005900D92A233B10750
:1000F000D9F711E0A2E3B1E001C01D92AD3BB10719
:10010000E1F710E0CEECD0E004C02297FE010E949F
:100110005011CC3CD107C9F72BD10C94591270CF98
:100120000E94CF098823E1F308951F93182F833687
:1001300079F084361CF4873491F405C0843659F084
:10014000873669F402C05F9A01C05F98579A11C060
:1001500088EC90E002C084EC90E08BD50AC0E0DF30
:1001600080E281278093B40184EB91E061E00E94FA
:10017000B3091F9108950FC0F0E0E055FE4F808154
:10018000D4DF80913201833019F41092320103C020
:100190008F5F809332010E94B009E09132018E1787
:1001A00059F70895AAE0B0E0E8EDF0E00C942111D1
:1001B0007C0100E010E06E010894C11CD11CD60146
:1001C000EFE0F1E08AE001900D928150E1F7F70154
:1001D000E00FF11F8081918165E670E00E94C610FA
:1001E000FB01EC0DFD1D808167D70E5F1F4F0A30AC
:1001F000110529F72A96E8E00C943D110F931F93FF
:1002000006EB10E0C80160E07DD7C801019661E00F
:1002100079D7C801029662E075D7C801039663E0FA
:1002200071D7C801049664E06DD7C801059665E0F2
:1002300069D7C801069666E065D7A1D61F910F91D0
:100240000895AAE0B0E0E7E2F1E00C94211180ED1E
:1002500097E00E946D0BD2DF80E890E01DD780E030
:1002600061E05FD688E890E017D78FE990E001D58C
:1002700088EE93E00E94DA0A82D681E990E00CD7FA
:1002800080E061E04ED686E990E006D788EE93E004
:1002900015C05FD17C0173D60027F7FC0095102FA5
:1002A000C801B701EAD680E091E004D780E061E0C0
:1002B00038D683E091E0FED684E690E00E94DA0A28
:1002C00080E1E6D7882329F380E10E94940988EE33
:1002D00093E00E94DA0A0CEE1FEF0832110528F0B5
:1002E00088E290E068ED7FEF04C088ED9FEF68E260
:1002F00070E0CCD781E00E943A0B84E190E00E944C
:10030000DA0A0F5F1F4F0C33110539F780E090E0D8
:1003100060E070E0BBD76E010894C11CD11C14C012
:10032000C60161E00E94330B7C0129D600E010E099
:10033000C801B701A2D680E061E0F3D5C60132DF83
:1003400084E690E00E94DA0A80E1A2D7882341F394
:1003500080E1EAD714D68BE091E0ACD689EA90E050
:1003600088D4F9D08823E9F72A96E8E00C943D1167
:10037000AAE0B0E0EEEBF1E00C94231162DF60E85C
:1003800075E280E090E00E94250A80EB91E064E055
:10039000CDD77E010894E11CF11C14E60AE0C701E8
:1003A00061E00E94330B23E0883E920740F41092F4
:1003B000B4011093B501599A519A5F9811C02BE07E
:1003C000883B920730F41093B4011093B501599A09
:1003D00005C01093B4011092B5015998519A5F9AD3
:1003E000579A9093B6018093B7010093B80184EBBC
:1003F00091E065E0B8D794DED2CFEF92FF920F93F1
:100400001F93982F803278F487E880937A00809148
:100410007C0080648076892B80937C0080917A00B8
:10042000806480937A0080917A0086FDFCCFFB0186
:10043000EE24FF24870180917A00806480937A0003
:1004400080917A0086FDFCCF80917C0085FF04C0FE
:100450008091790090E004C08091780090917900BB
:10046000A0E0B0E0E80EF91E0A1F1B1F319719F734
:10047000CB01969587956034710538F48E0D9F1DDC
:1004800070E00E94C6109B010DC0A0E0B0E0E80E35
:10049000F91E0A1F1B1F9B0140E050E0C801B70175
:1004A0000E94DA10C9011F910F91FF90EF900895FB
:1004B000A0E0B0E02091190130911A0140E050E035
:1004C000BC01CD010E949B109B01AC0180917C007E
:1004D00085FF0BC0B901CA0161587F4F8F4F9F4FF5
:1004E0002FEF30E040E050E00AC0B901CA0161508E
:1004F0007E4F8F4F9F4F2FEF33E040E050E00E9440
:10050000DA10C901089579DFD3CF1F9310917C00D1
:1005100080917C008F7D80937C0086E06AE070E0B3
:10052000F2DFAC0115FD04C080917C008F7D03C01B
:1005300080917C00806280937C009A01220F331F9F
:10054000240F351F2F5F3F4F36952795C9011F9107
:100550000895DBCF089580912601882339F020E0AB
:100560008091510190915201892B09F021E0822F55
:100570000895A0E0B0E0EFEBF2E00C941F11FC0155
:100580005B01C42E809150018823C9F481E08093DF
:10059000500110926F0083E28093800081E180938C
:1005A00081001092820080E197E29093890080930D
:1005B000880010928B0010928A00229A78941092F0
:1005C0002601F7FD03C0DD24D39403C0FF772AE0A2
:1005D000D22E80918100082F10E0087F107088ECE7
:1005E000D89EC00111248E179F07C0F4EF0187E247
:1005F000E131F80710F0C0E1D7E2BE0176956795CA
:1006000080E090E06058794687469F4F9E0140E029
:1006100050E00E94DA107901016024C088E2D89E7F
:10062000802D1124C82FD0E0CE17DF0708F4EF018A
:10063000BE01769567959E0140E050E08AE0D816AD
:1006400039F480E090E0605E734481449F4F06C0BF
:1006500080E090E060537D4E8C4E9F4F0E94DA10F8
:10066000790102608AE0D81639F4CE0105966AE075
:1006700070E00E94C610EB0183E0C83ED80711F479
:10068000B5010FC0BE0180E090E0950140E050E070
:100690000E949B1028EE33E040E050E00E94FC10E6
:1006A000B90110926F0000938100F0928900E092EE
:1006B0008800E0918800F0918900AC2DA03108F00D
:1006C000AFE080E190E08A1B910902C0F695E795C2
:1006D0008A95E2F7F0938B00E0938A0070933801DB
:1006E0006093370186B38FEF86BB81E080936F0004
:1006F000CDB7DEB7EAE00C943B11CF93DF93EB016B
:100700008F3F11F0442329F488EE93E0BE0140E0CE
:1007100067C0813110F420E005C0282F2051203619
:1007200008F02FE5822F6CE00E94BA10382F682F56
:1007300070E084EF9FEF689FF001699FF00D789F54
:10074000F00D1124E20FF11DEC30F10538F4EC5CF2
:10075000FF4F0C944E118CE991E023C080E090E0B3
:1007600020C085EB91E01DC08FEC91E01AC08AEEAD
:1007700091E017C087E092E014C086E292E011C0D9
:1007800087E492E00EC089E692E00BC08EE892E02A
:1007900008C085EB92E005C08EED92E002C08AE0D1
:1007A00093E0373071F002C0880F991F6A95E2F725
:1007B000323020F005966AE070E00BC0805090481F
:1007C0000BC036E0880F991F3A95E1F7029665E075
:1007D00070E00E94C610CB01403108F04FE0BE012E
:1007E000C8DEDF91CF91089530913501E09151013C
:1007F000F0915201332311F0249101C02081822F06
:1008000081548A3108F4205E203259F480915101DC
:10081000909152010196909352018093510101975A
:1008200029F7822F0895CF93DF93DEDF282FC0E0D2
:10083000D0E01CC0CE0153E0880F991F5A95E1F714
:10084000CC0FDD1FC80FD91F822F992787FD9095E8
:10085000C80FD91FE09780915101909152010196E4
:100860009093520180935101BFDF282F822F805334
:100870008A3000F3CE01DF91CF910895A0E0B0E07F
:10088000E4E4F4E00C941D1180901B01B09033015E
:10089000BB2021F060913401662399F4A0903401CB
:1008A0000091200110912101E0901C01F0901D01A8
:1008B000C0911E01D0911F01C0902201D090230150
:1008C00003C18FEF70E040E018DF10923401C0C127
:1008D00094E0892EBB2404EF11E084E0E82EF12C93
:1008E000C0EDD7E0B4E09B2EAFE0CA2ED12C7CDF68
:1008F000282F8091510190915201019690935201BD
:1009000080935101263609F498C02736CCF422365C
:10091000A1F1233674F42E3361F12F3334F42132F4
:10092000B9F22C3309F006C126C0213609F002C104
:100930001CC1243609F451C025360CF066C035C000
:100940002F3609F4BFC0203754F42C3609F4A5C063
:100950002D3609F4A5C0273609F0ECC086C024372F
:1009600009F4CEC0263709F4E2C0223709F0E2C00C
:10097000ADC08394BCCF8A94BACFA0923401B09218
:1009800033011093210100932001F0921D01E092A8
:100990001C01D0931F01C0931E0190921B01D092A5
:1009A0002301C09222012BE0F7C0A0923401B09243
:1009B00033011093210100932001F0921D01E09278
:1009C0001C01D0931F01C0931E0190921B01D09275
:1009D0002301C092220120E0DFC0A0923401B09236
:1009E00033011093210100932001F0921D01E09248
:1009F0001C01D0931F01C0931E0190921B01D09245
:100A00002301C092220122E0C7C0A0923401B0921B
:100A100033011093210100932001F0921D01E09217
:100A20001C01D0931F01C0931E0190921B01D09214
:100A30002301C092220124E0AFC0A0923401B09201
:100A400033011093210100932001F0921D01E092E7
:100A50001C01D0931F01C0931E0190921B01D092E4
:100A60002301C092220125E097C0A0923401B092E8
:100A700033011093210100932001F0921D01E092B7
:100A80001C01D0931F01C0931E0190921B01D092B4
:100A90002301C092220127E07FC0C5DE7C0141C056
:100AA000A3DE8C3611F4BB2403C0AA24BB24B39468
:100AB000809151019091520101969093520180933F
:100AC000510115CFB0DE882E982C11CFA0923401A1
:100AD000B09233011093210100932001F0921D0187
:100AE000E0921C01D0931F01C0931E0190921B0144
:100AF000D0922301C092220120E0FF24F3944DC044
:100B000092DEBC0180EC9DE50E94C610CB01EB019A
:100B1000F3E0CC0FDD1FFA95E1F7880F991FC80F9E
:100B2000D91FCE01B7010E94C6108B01E0CE7BDE3B
:100B30006C01DDCEA0923401B092330110932101FB
:100B400000932001F0921D01E0921C01D0931F013F
:100B5000C0931E0190921B01D0922301C0922201EA
:100B6000109252011092510173C0A0923401B092C0
:100B700033011093210100932001F0921D01E092B6
:100B80001C01D0931F01C0931E0190921B01D092B3
:100B90002301C092220129E0FF248CE0889EC0013D
:100BA0001124E22EE80E0AC0809151019091520169
:100BB00001969093520180935101E39415DE8B329C
:100BC00099F3833289F30BC08091510190915201C6
:100BD00001969093520180935101EA9405DE8D3283
:100BE00099F3C0912001D09121018153883050F4B4
:100BF00000911E0110911F0116DEBC01C8010E9468
:100C0000C610EB018E010BC08091510190915201F1
:100C100001969093520180935101C00FD11F1695F8
:100C20000795E2DD8E3281F380913301882339F01C
:100C3000CE019695879580933401C81BD109FF207A
:100C400011F0EE24EA948E2DBE014091220155DD73
:100C5000CDB7DEB7ECE00C94391110926F00909391
:100C600052018093510181E080933501109234014B
:100C700005CEF3CF08951F920F920FB60F92112455
:100C80002F933F934F935F936F937F938F939F9394
:100C9000AF93BF93EF93FF93809137019091380109
:100CA00001979093380180933701019609F51092CE
:100CB0006F00789480918100887F816080938100AB
:100CC00080E197E2909389008093880010928B00D6
:100CD00010928A0081E080932601809151019091C9
:100CE0005201892B29F080913601882309F4C6DD51
:100CF000FF91EF91BF91AF919F918F917F916F91F4
:100D00005F914F913F912F910F900FBE0F901F90C9
:100D10001895EF92FF920F931F936AB157985A98C4
:100D2000289AE0903D01F0903E0100913F01109122
:100D3000400120E030E041E050E0CA016F9364E000
:100D40006A95F1F76F910197C9F75C9ACA016F93A1
:100D500064E06A95F1F76F910197C9F789B15C98E2
:100D6000FA016F9364E06A95F1F76F913197C9F7D3
:100D70005C9AFA016F9364E06A95F1F76F9131978D
:100D8000C9F75C9887FF0BC02C5F3F4FC901A0E0FB
:100D9000B0E08E159F05A007B10708F4CECF6AB961
:100DA0001F910F91FF90EF90089565B190E0AC0115
:100DB00041705070440F551F9C012670307053E0F5
:100DC000220F331F5A95E1F7422B6D7C462B45B914
:100DD0002BB18870907034E0880F991F3A95E1F735
:100DE0002F77282B2BB95C9A81E090E0FC016F9360
:100DF00064E06A95F1F76F913197C9F75C986F934A
:100E000064E06A95F1F76F910197C9F7089580E161
:100E100097E2A0E0B0E080933D0190933E01A09363
:100E20003F01B0934001529A209A549A8EE190E08B
:100E3000D0D383E069D186E090E0CBD383E064D166
:100E400082E090E0C6D383E05FD182E090E0C1D33E
:100E500082E05AD182E090E0BCD388E241D088E0C1
:100E60003FD081E03DD086E03BD08CE039C080911E
:100E70004101882321F481E080934101C8CF089586
:100E8000BF92CF92DF92EF92FF920F931F93082FA2
:100E9000162FF42EECDF3DDFB4B0C5B0DAB0EBB006
:100EA0002898112311F05A9A01C05A9884B182638C
:100EB00084B9579A81E0F81621F0802F82958F70BF
:100EC00074DF802F8F7071DFDAB8EBB8B4B8C5B8B3
:100ED0001F910F91FF90EF90DF90CF90BF900895FA
:100EE00060E042E0CDCFA4E0B0E0E9E7F7E00C94A9
:100EF0002511182F062F80E8898380EC8A8384E9E6
:100F00008B8384ED8C83FE01E60FF11D8181810FBF
:100F1000E7DF10933C0100933B012496E4E00C943E
:100F20004111E1CF089581E0DBDF8091390190919B
:100F30003A01892B19F160E070E208C0E0913901B3
:100F4000F0913A01E40FF51F70836F5F462F50E078
:100F50008091240190E001972091250130E0FC016F
:100F6000E29FC001E39F900DF29F900D112448175E
:100F7000590724F310923C0110923B010895D3CFFE
:100F8000089561E042E07CCF6F927F928F929F92B2
:100F9000AF92BF92CF92DF92FF920F93DF93CF93E6
:100FA000CDB7DEB72A970FB6F894DEBF0FBECDBF20
:100FB0005B016C010AE03E010894611C711CFA2C73
:100FC000C601B5012AE030E040E050E00E94DA10AE
:100FD000C901DA015C016D0101504301800E911CD1
:100FE00080E3F80EC601B5012AE030E040E050E0B1
:100FF0000E949B10F61AF401F082A114B104C104FE
:10100000D104E9F607C0F601E00FF11D8081B9DFD8
:101010000F5F04C06E010894C11CD11C0A3098F304
:101020002A960FB6F894DEBF0FBECDBFCF91DF91E9
:101030000F91FF90DF90CF90BF90AF909F908F90D7
:101040007F906F900895EF92FF920F931F937B0113
:101050008C0197FF0AC010950095F094E094E11C74
:10106000F11C011D111D8DE28CDFC801B7018CDF61
:101070001F910F91FF90EF900895E5CF0895CF93C2
:10108000DF93EC0102C07DDF2196FE01849188236D
:10109000D1F7DF91CF910895F2CF0895CF93DF93E9
:1010A000EC0102C021966DDF88818823D9F7DF919A
:1010B000CF910895F3CF089564CF0895EF92FF92F2
:1010C0000F931F93CF93DF937C01062F10E0F3E083
:1010D000000F111FFA95E1F7C0E0D0E09E01200F4C
:1010E000822F8064FDDEF701EC0FFD1FE4918E2F4F
:1010F00048DF2196C830D10589F7CDB7DEB7E6E0E5
:101100000C943F11DBCF089560E041E0B9CE282F69
:10111000883068F481E090E002C0880F991F2A951A
:10112000E2F7282FAAE2B0E0EBE2F0E029C08E302F
:1011300080F430E02850304081E090E002C0880F19
:10114000991F2A95E2F7282FA4E2B0E0E5E2F0E04B
:1011500017C0853130F020E0A0E0B0E0E0E0F0E042
:101160000FC030E02E50304081E090E002C0880F88
:10117000991F2A95E2F7282FA7E2B0E0E8E2F0E015
:101180006F3F19F48081822709C0662319F080819E
:10119000822B04C09081822F8095892380838C913B
:1011A000822B8C930895E0EBF0E083EF80838081C5
:1011B00084BDE1EBF0E082E08083808185BDE4EBDB
:1011C000F0E010828081E3EBF0E08083808188BDD5
:1011D00088B587BD86E060E09ADF85E060E097DF54
:1011E0008BE060E094DF83E060E091CF809142018A
:1011F000882321F481E080934201D5CF0895CF93D5
:10120000DF93EC01F3DFD7FD02C020E004C0D095EE
:10121000C195DF4F21E0CE01CF3FD10519F014F089
:101220008FEF90E0222319F018BC87BD02C088BD63
:1012300017BCDF91CF910895CF93DF93EC01D6DFF8
:10124000D7FD02C020E004C0D095C195DF4F21E05A
:10125000CE01CF3FD10519F014F08FEF90E022239B
:1012600029F01092B4008093B30004C08093B400BE
:101270001092B300DF91CF9108950F931F938B01CC
:10128000BEDFC801D9DF1F910F910895F6CF0895F1
:10129000282F80914301882391F481E080934301BA
:1012A00084B18D7C84B985B1826385B985E090E095
:1012B0006F9364E06A95F1F76F910197C9F783B175
:1012C0008095822308951F93CF93DF93182F8091E9
:1012D0004301882391F481E08093430184B18D7CA4
:1012E00084B985B1826385B985E090E06F9364E04D
:1012F0006A95F1F76F910197C9F7C12FD0E083B1DB
:1013000090E08C239D23892BD1F38AE090E061D17A
:1013100083B190E08C239D23892B89F383B18123B2
:10132000DF91CF911F910895CECF08952091C100F4
:101330002F772093C10090935C0180935B01109202
:1013400055016093570181E08093580180915301CA
:10135000882329F48091C10080688093C10008959A
:1013600080915501089590935A01809359011092EC
:10137000540160935601892B61F0809154018617C6
:1013800040F480915301882321F48091C100806250
:1013900003C08091C1008F7D8093C100089590911A
:1013A000540120E080915601981709F421E0822F22
:1013B000089520915301222311F488E901C088E1A6
:1013C0008093C1008091590190915A01892B79F045
:1013D0009091540180915601981748F4222339F4D2
:1013E0008091C10080628093C100789408958091BB
:1013F000C1008F7DF8CFEF92FF920F931F937B0177
:101400008C0180E0D6DF60EA75E286E290E06E193A
:101410007F09800B910B33E0660F771F881F991FA0
:101420003A95D1F724E0EE0CFF1C001F111F2A95FE
:10143000D1F7A8019701BED63093C5002093C40010
:101440001F910F91FF90EF900895D5CF08951F92AF
:101450000F920FB60F9211242F938F939F93EF93B8
:10146000FF932091C600E0915B01F0915C01309701
:1014700081F09091550180915701981750F4809117
:101480005501E80FF11D2083809155018F5F8093F6
:1014900055019091550180915701981731F4809131
:1014A0005801882311F010925501FF91EF919F91FF
:1014B0008F912F910F900FBE0F901F9018951F9234
:1014C0000F920FB60F9211248F939F93EF93FF9378
:1014D000E0915901F0915A013097F9F0809154014F
:1014E00090915601891738F58091C00085FF23C07F
:1014F00080915401E80FF11D80818093C600809196
:1015000054018F5F8093540116C08091530188234A
:1015100021F48091C100806203C08091C1008F7D61
:101520008093C100FF91EF919F918F910F900FBE1B
:101530000F901F90189580915401891770F7E5CF8F
:101540002F928F939F932FB680915E0190915F01B0
:10155000019680935E0190935F0190E0809160011D
:10156000891F80936001909166019C5F9093660152
:101570008091650180519742C0F0909366018093FD
:1015800065018091610190916201019680936101F2
:101590009093620190E080916301891F80936301C1
:1015A00080916401891F809364012FBE9F918F9168
:1015B0002F90189528EE33E009C0F9016F9364E08D
:1015C0006A95F1F76F913197C9F701970097A9F7DD
:1015D000089528EE33E009C0F9016F9364E06A953D
:1015E000F1F76F913197C9F701970097A9F708951F
:1015F000A0E7B0E08C918E7F8C93E0EBF0E08081EF
:1016000083608083E1EBF0E08081807F8083808154
:1016100082608083B89A8C9181608C9378940895CD
:1016200080916701882321F481E080936701E0CFF6
:101630000895F6DFE0E7F0E080818E7F80831092EE
:101640006101109262011092630110926401109284
:1016500066011092650180818160808308950895FC
:1016600088E691E031C49C01462F88E691E0B901FB
:1016700020E0A1C3682F88E691E03DC50F93DF937A
:10168000CF9300D000D00F92CDB7DEB79C01962F3C
:10169000DE011196E7E2F1E085E001900D928150C4
:1016A000E1F7BE016F5F7F4F992329F088E691E053
:1016B00045E00FEF04C088E691E045E003E174D017
:1016C00088E691E059D0B5DF0F900F900F900F9002
:1016D0000F90CF91DF910F91089560E0CFCFFC0183
:1016E000118210821382128215821482178216824E
:1016F000613118F080E1808701C06087208B48301D
:1017000060F481E090E002C0880F991F4A95E2F7EB
:101710004AE250E02BE230E029C04E3080F4242F22
:1017200030E02850304081E090E002C0880F991FDF
:101730002A95E2F744E250E025E230E017C0453157
:1017400030F080E040E050E020E030E00FC0242F97
:1017500030E02E50304081E090E002C0880F991FA9
:101760002A95E2F747E250E028E230E081873387AC
:101770002287558744870895DC011C96ED91FC91E2
:101780001D97309781F0808119969C911997892B2C
:1017900080831A96ED91FC911B97908119968C91FC
:1017A0008095892380830895A0E0B0E0E9EDFBE017
:1017B00046C5EC015B01642F7901402F20E08FDFEB
:1017C000CE018F5B9F4FFC011082DE01AE5BBF4FED
:1017D0001C92FE01ED5BFF4F1082FF86EE8640E01B
:1017E00061E070E06F017D018C014EC0F501E40FF6
:1017F000F11D8081883050F49B0102C0220F331FFD
:101800008A95E2F7922F29E230E01FC08E3060F413
:1018100090E00897FB0102C0EE0FFF1F8A95E2F7E8
:101820009E2F23E230E011C0853120F090E020E0CF
:1018300030E00BC090E00E979B0102C0220F331FD7
:101840008A95E2F7922F26E230E0E42FF0E0DE0105
:10185000AE0FBF1F51969C93EE0FFF1FEC0FFD1FA5
:1018600032A321A32332310511F4F80109C0263235
:10187000310511F4F70104C02932310521F4F601D4
:101880008081982B90834F5F8885481708F4AECFEE
:10189000CDB7DEB7EAE0EFC4A0E0B0E0E1E5FCE000
:1018A000CCC4EC015B01CF5BDF4F4991A9918880EB
:1018B000C354D04090E009C0E92FF0E0EE0FFF1FC5
:1018C000EA0DFB1D118210829F5F88859817A0F397
:1018D00084B1CF5BDF4F3991832B84B987B12991D4
:1018E000822B87B98AB19881C354D040892B8AB999
:1018F00085B1832B85B988B1822B88B98BB1892BAF
:101900008BB9EAE0F0E06F9364E06A95F1F76F91CC
:101910003197C9F784B13095832384B987B1209575
:10192000822387B98AB1909589238AB985B13823F2
:1019300035B988B1282328B98BB198239BB99090E9
:10194000B000C090B1008091B00083608093B0007F
:1019500082E08093B100D090B20060E070E03AC0C5
:101960005091B2005D19650F711DE3B0E41609F0E6
:101970004FC0F6B0FA1609F04BC089B1881509F0CE
:1019800047C025C0A42FB0E09D01220F331F850161
:10199000020F131FF80180819181892BA1F42C0F74
:1019A0003D1FF90181A192A1FC01208130E0AC0F23
:1019B000BD1F51968C9190E028233923232B19F4D5
:1019C000F801718360834F5F88854817D8F2D50E80
:1019D0004E2DAF2D8E859F856817790708F290925E
:1019E000B000C092B10020E00FC0E22FF0E0EE0F97
:1019F000FF1FEA0DFB1D80819181892B21F48E85CB
:101A00009F85918380832F5F8885281770F305C099
:101A1000E3B0F6B089B040E0D7CFCDB7DEB7ECE0A9
:101A200028C4A0E0B0E0E6E1FDE00BC4EC018B01CE
:101A3000D0907C00E0907A00C7B0F8B080917A0036
:101A400086FDFCCF90E009C0E92FF0E0EE0FFF1F0C
:101A5000E00FF11F118210829F5F88859817A0F315
:101A600097B18AA18095982397B998B1892388B9AD
:101A700087E880937A0050E025C0FE01E40FF11D55
:101A80008189806480937C0080917A008064809357
:101A90007A0080917A0086FDFCCFE42FF0E0EE0F13
:101AA000FF1FE00FF11F20917800309179008081B5
:101AB0009181820F931F918380834F5F88854817A0
:101AC000E0F25F5F89A1581710F040E016C040E0D7
:101AD000F5CFE42FF0E0EE0FFF1FE00FF11F69A13B
:101AE000862F90E09595879520813181820F931FF5
:101AF00070E04CD3718360834F5F8885481748F34B
:101B0000D0927C00E0927A00F8B8C7B8CDB7DEB7C3
:101B1000E8E0B3C3A0E2B0E0EFE8FDE091C38C01E0
:101B20007B01D42E842F81508230B0F4D8011C96D2
:101B3000ED91FC911D97309779F0808119969C91D9
:101B40001997892B80831A96ED91FC911B978081C0
:101B500019969C91892B8083F8018089882339F517
:101B6000C02EB12EC801B70197DED8011C96ED91A9
:101B7000FC911D97309781F0808119969C9119975F
:101B8000892B80831A96ED91FC911B979081199671
:101B90008C91809589238083B2E0DB1609F050C0D8
:101BA0008C2D9B2DBE016F5F7F4F76DE25C0C02E32
:101BB000B12EC801B70135DFD8011C96ED91FC911B
:101BC0001D97309781F0808119969C911997892BE8
:101BD00080831A96ED91FC911B97908119968C91B8
:101BE000809589238083B2E0DB1651F58C2D9B2DE7
:101BF000BE016F5F7F4F15DF40E0BE016F5F7F4F1B
:101C00001AC0E42FF0E0EE0FFF1F6701CE0EDF1EBB
:101C1000E60FF71FD8011E962D913C911F978081EA
:101C20009181281B390BF60180819181820F931FCE
:101C3000918380834F5FD80118968C91481708F3E1
:101C4000A096E9E019C3A0E0B0E0E8E2FEE0F6C249
:101C5000EC01162F072F942E22E0421711F0442397
:101C600051F48C819D81892B09F4A1C08E819F81C3
:101C7000892B09F49CC0892D8150823050F48881D1
:101C80009981892B09F493C08A819B81892B09F45E
:101C90008EC0CE01612F702F492D3CDF812F902FF8
:101CA0009C015901CC24DD2400E010E07AC081E0E1
:101CB000981669F4EA81FB81E00FF11F20813181E0
:101CC000E881F981E00FF11F408151813DC0AC8175
:101CD000BD81992059F4EE81FF81E00FF11F208131
:101CE0003181A00FB11F4D915C912EC0A00FB11F8B
:101CF0008D919C91E881F981E00FF11F2081318164
:101D0000EE85FF858217930710F4AF0105C0A90186
:101D10004E0F5F1F481B590BEE81FF81E00FF11F33
:101D200060817181EA81FB81E00FF11F80819181E7
:101D3000EE85FF856817790710F49F0105C09C01A7
:101D40002E0F3F1F261B370B7901E41AF50AF1F01D
:101D5000F5016081718180E090E09A0140E050E0FF
:101D6000621B730B840B950B28EE33E040E050E0D0
:101D7000E2D1970140E050E03FD2C901F3E0293EB3
:101D80003F0714F088EE93E097FF02C080E090E0F8
:101D9000F501819391935F010894C11CD11C0E5FE2
:101DA0001F4F888590E0C816D9060CF480CFCDB7B8
:101DB000DEB7EBE05FC2A4E0B0E0E0EEFEE037C2E9
:101DC0008C01F62EE72E2A833EDFD8011896BC91AF
:101DD000B9832F2D3E2DC9018C015524442466243E
:101DE000772443011C821B82AA24BB246501B8EE20
:101DF0002B2EB3E03B2E31C0F801E080F180FA8158
:101E0000FF2321F0C1018E199F097C0199ECE9168D
:101E1000F10414F044244394A3E3EA16F10494F08B
:101E2000B701882777FD8095982FA601950183D16A
:101E3000660E771E881E991EEB81FC81EE0DFF1D3C
:101E4000FC83EB83539488EE93E0A0E0B0E0A80E0F
:101E5000B91ECA1EDB1E0E5F1F4F9981591660F214
:101E6000442009F5692F70E06150704084EF91E0E3
:101E7000689F9001699F300D789F300D11248091EB
:101E8000AC019091AD01821793071CF440E050E043
:101E900017C088EE93E0689FA001699F500D789F5E
:101EA000500D11240DC0AB81BC819D0140E050E07C
:101EB000C401B3017FD1A9013093AD012093AC01DE
:101EC000CA012496E2E1CFC1CF93DF93EC018A816E
:101ED0009B81009709F095D28E819F81009709F030
:101EE00090D288819981009709F08BD28C819D8155
:101EF000009709F086D2DF91CF910895A3E6B0E074
:101F0000E3E8FFE094C17C015B016A01A2962FAF78
:101F1000A297DA018D919C91892B09F5F7018085B3
:101F200090E0880F991FC0D1D6018D939C930097A4
:101F300009F4DDC020E030E00CC0C901880F991F12
:101F4000D601ED91FC91E80FF91F118210822F5FED
:101F50003F4FF701808590E02817390774F3D501CA
:101F60008D919C91892B89F000E010E03E0108944E
:101F7000611C711C41E4242E312C2C0E3D1E31E2DB
:101F8000432E512C4C0E5D1E27C0F701808590E03A
:101F9000880F991F89D1D5018D939C93009709F4DF
:101FA000A6C020E030E011C0C901880F991FD501FB
:101FB000ED91FC91E80FF91FD7011E968D919C9130
:101FC0001F97918380832F5F3F4FF701808590E0BB
:101FD000281739074CF3C8CFC701B301A2964FADFC
:101FE000A29798DDD70118968C91882E9924A1018B
:101FF000F301A4965FAE4EAEA49760E070E034C0EB
:102000000115110559F0A496AEADBFADA4972D9161
:102010003C91808191812817390758F48081918102
:10202000A496AEADBFADA4978D939C9301151105F9
:1020300041F0DA012D913C918081918182179307C3
:1020400028F480819181DA018D939C936F5F7F4F9B
:102050004E5F5F4F3296A4968EAD9FADA4970296C9
:10206000A4969FAF8EAFA497681579054CF20F5FC9
:102070001F4F0A30110509F0AFCF40E050E020E0DB
:1020800030E08E010F5B1F4FBE016F5D7F4F28C098
:10209000F801E20FF31F80809180F601A081B181E9
:1020A000A20FB31F8D919C9111978815990510F47B
:1020B0008D929C92FB01E20FF31F80809180F501CD
:1020C000A081B181A20FB31F8D919C9111978816A9
:1020D000990610F48D929C924F5F5F4F2E5F3F4F99
:1020E000D70118968C9190E0481759078CF2CD597A
:1020F000DF4FE2E1B8C01F93CF93DF93EC01162FBF
:10210000862F8150823038F4AE014E5F5F4FCE0192
:10211000BE0121E0F3DE123011F0112341F4AE01D3
:102120004A5F5F4FCE012496BE0120E0E7DEDF91DB
:10213000CF911F910895629FD001739FF001829FFC
:10214000E00DF11D649FE00DF11D929FF00D839F46
:10215000F00D749FF00D659FF00D9927729FB00DE3
:10216000E11DF91F639FB00DE11DF91FBD01CF01F6
:1021700011240895991B79E004C0991F961708F05F
:10218000961B881F7A95C9F780950895AA1BBB1BDB
:1021900051E107C0AA1FBB1FA617B70710F0A61B67
:1021A000B70B881F991F5A95A9F780959095BC0188
:1021B000CD010895A1E21A2EAA1BBB1BFD010DC083
:1021C000AA1FBB1FEE1FFF1FA217B307E407F507E7
:1021D00020F0A21BB30BE40BF50B661F771F881FC3
:1021E000991F1A9469F760957095809590959B0159
:1021F000AC01BD01CF01089597FB092E05260ED035
:1022000057FD04D0D7DF0AD0001C38F45095409514
:10221000309521953F4F4F4F5F4F0895F6F79095BA
:102220008095709561957F4F8F4F9F4F08952F92A6
:102230003F924F925F926F927F928F929F92AF9256
:10224000BF92CF92DF92EF92FF920F931F93CF93A3
:10225000DF93CDB7DEB7CA1BDB0B0FB6F894DEBF3A
:102260000FBECDBF09942A88398848885F846E8460
:102270007D848C849B84AA84B984C884DF80EE80AA
:10228000FD800C811B81AA81B981CE0FD11D0FB6B3
:10229000F894DEBF0FBECDBFED010895EE0FFF1F16
:1022A0000590F491E02D0994CF93DF93BC01823027
:1022B000910510F462E070E0A091BB01B091BC0107
:1022C000ED01E0E0F0E040E050E021C0888199813C
:1022D0008617970769F48A819B81309719F0938359
:1022E000828304C09093BC018093BB01FE0134C083
:1022F0006817790738F44115510519F084179507C7
:1023000008F4AC01FE018A819B819C01E9012097C0
:10231000E9F641155105A9F1CA01861B970B0497EF
:1023200008F4BA01E0E0F0E02AC08D919C91119789
:1023300084179507F9F46417750781F412968D9147
:102340009C911397309719F09383828304C09093E4
:10235000BC018093BB01FD0132964FC0CA01861BB0
:10236000970BFD01E80FF91F6193719302978D930D
:102370009C9343C0FD01828193819C01D9011097F8
:10238000A1F68091B9019091BA01892B41F4809115
:102390002E0190912F019093BA018093B901409141
:1023A0003001509131014115510541F44DB75EB7EF
:1023B00080912C0190912D01481B590B2091B9015E
:1023C0003091BA0124173507B0F4CA01821B930B70
:1023D0008617970780F0AB014E5F5F4F8417950714
:1023E00050F0420F531F5093BA014093B901F901C5
:1023F0006193719302C0E0E0F0E0CF01DF91CF91F3
:102400000895CF93DF93009709F450C0EC01229711
:102410001B821A82A091BB01B091BC01109709F1F7
:1024200040E050E0AC17BD0708F1BB83AA83FE0172
:1024300021913191E20FF31FAE17BF0779F48D910F
:102440009C911197280F391F2E5F3F4F39832883A6
:1024500012968D919C9113979B838A834115510508
:1024600071F4D093BC01C093BB0120C012968D9132
:102470009C911397AD01009711F0DC01D3CFFA01C5
:10248000D383C28321913191E20FF31FCE17DF076F
:1024900069F488819981280F391F2E5F3F4FFA0117
:1024A000318320838A819B8193838283DF91CF91C3
:1024B000089510E0CEECD0E003C0FE01F1DE2296DC
:0A24C000C03DD107D1F7F894FFCF1B
:1024CA006D56005072657373204200476F210020D9
:1024DA000000010203040506FF8813040400D00764
:1024EA00F4010F000208010E0F1011122000BD01A5
:0224FA000000E0
:00000001FF
